:020000040000FA
:10000000B0220020150200001D0200001F020000A7
:100010002102000023020000250200000000000071
:1000200000000000000000000000000027020000A7
:1000300029020000000000002B0200002D02000039
:100040002F0200002F020000290500002F020000EF
:100050002F0200002F0200002F0200002F020000DC
:100060002F0200002F0200002F0200002F020000CC
:100070002F0200002F0200002F0200002F020000BC
:100080002F0200002F0200002F0200002F020000AC
:100090002F0200002F0200002F0200002F0200009C
:1000A0002F0200002F0200002F0200002F0200008C
:1000B0002F0200002F0200000000000000000000DE
:1000C0002F0200002F0200002F0200002F0200006C
:1000D0002F0200002F0200002F020000000000008D
:1000E0000000000000000000000000000000000010
:1000F0000000000000000000000000000000000000
:1001000000000000000000000000000000000000EF
:1001100000000000000000000000000000000000DF
:1001200000000000000000000000000000000000CF
:1001300000000000000000000000000000000000BF
:1001400000000000000000000000000000000000AF
:10015000000000000000000000000000000000009F
:10016000000000000000000000000000000000008F
:10017000000000000000000000000000000000007F
:10018000000000000000000000000000000000006F
:10019000000000000000000000000000000000005F
:1001A000000000000000000000000000000000004F
:1001B000000000000000000000000000000000003F
:1001C000000000000000000000000000000000002F
:1001D000000000000000000000000000000000001F
:1001E000000000000000000000000000000000000F
:1001F00000000000000000000000000000000000FF
:10020000DFF80CD000F02AF800480047810B00000E
:10021000B02200200648804706480047FEE7FEE778
:10022000FEE7FEE7FEE7FEE7FEE7FEE7FEE7FEE7A6
:10023000910200000102000040EA01039B0703D085
:1002400009E008C9121F08C0042AFAD203E011F815
:10025000013B00F8013B521EF9D27047064C074D96
:1002600006E0E06840F0010394E807009847103486
:10027000AC42F6D3FFF7C8FF5C1E00007C1E0000F6
:1002800001480249086070470090D0033C000020FC
:1002900010B500F005FD28B192480088C0F3042095
:1002A0009149086000F058FD10B1904890494867A6
:1002B00000F094FD30B18B48E0380068C0F3423064
:1002C0008C49086000F0B8FD28B18B48006820F028
:1002D00080708949086000F0D1FD48B1002087494D
:1002E00008604FF08041C1F810018249091F086081
:1002F00000F0F2FD18B103207E496431086000F07F
:100300000DFE68B105207E49086001207C497831E6
:10031000086000207A49083108603F20091F086002
:1003200000F01EFE002855D06E48E0300068754988
:1003300008606C48E4300068091D08606948E830CE
:100340000068091D08606748EC300068091D0860F6
:100350006448F0300068091D08606248F4300068A5
:10036000091D08605F48F830006866492031086060
:100370005C48FC300068091D086063480068091D7E
:1003800008606148001D0068091D08605E4808306B
:100390000068091D08605C480C300068091D086091
:1003A00059481030006857494031086056481430A9
:1003B0000068091D0860544818300068091D08606D
:1003C00051481C300068091D08604F482030006803
:1003D000091D086000F036FC30B14248CC38006896
:1003E00000F04F004949086000F088FC40B14848DF
:1003F000006800F0010018B16FF001004449086086
:1004000000F0CCFC28B14348006840F480604149CA
:10041000086039487438006840F47000364974390F
:10042000086000BF00BF00BFBFF34F8F00BF00BF19
:1004300000BF00BF00BF00BFBFF36F8F00BF00BF92
:1004400000BF3548006800F0004028B93248001D60
:10045000006800F00040E8B301203049086000BFA8
:100460002F4800680028FBD015202B49086000BFEA
:100470002B4800680028FBD015212748001D01608B
:1004800000BF274800680028FBD0002023490860EF
:1004900000BF234800680028FBD000BF00BF00BF9A
:1004A00000BF00BFBFF34F8F00BF00BF00BF1248A7
:1004B000F038006800F4E0601A490843001D0E4956
:1004C000F039086000BF00BF00BFBFF34F8F00BF0F
:1004D00000BF00E003E000BF00BF00BFFDE7FFF783
:1004E000CFFE10BD24030010403501400DF0ADBA21
:1004F00000C007403C050040FCED00E00C0100405E
:100500001056004020C5004024040010E40E0040B6
:10051000000400403C1700400012001004E50140B8
:1005200000E401400000FA0510B502490868804760
:1005300010BD00000C000020014A024900F013B871
:10054000290A00003400002002E008C8121F08C178
:10055000002AFAD170477047002001E001C1121F44
:10056000002AFBD170472DE9F04116460F4604469C
:10057000002503E03946B047641C6D1C2078002834
:10058000F8D12846BDE8F08172B600BF1348006874
:1005900000F0010000B100BE00BF00BF00BF00BFFF
:1005A00000BF00BFBFF34F8F00BF00BF00BF0B48AD
:1005B000E438006800F4E06009490843001D074979
:1005C000E439086000BF00BF00BFBFF34F8F00BF1A
:1005D00000BF00BF00BF00BFFDE70000F0ED00E07E
:1005E0000000FA053EB504460020009001900290FC
:1005F00002946A46002144F20100FFF7C5FF3EBDA8
:1006000070B504460D46204600F0F2F928B129469F
:10061000204600F0E1F9002070BD0520FCE703460C
:1006200009B90E20704712B1501E104008B10920C0
:10063000F8E71960501E988000209860D86000BFCD
:10064000F0E770B504460D46204600F0D1F9A188C8
:10065000884205D82946204600F0DDF9002070BD0B
:100660000420FCE72DE9F04104460F4807782146B5
:100670000E48FFF7C5FF804697B100200A49087071
:1006800001220B490B4800F0DFFC054600BF2E4657
:1006900026B100BF3046FFF7A5FF00BF00BF00BF77
:1006A0004046BDE8F08100002E00002090020020AE
:1006B0002D000020140000202DE9F04188B00446F0
:1006C0000E46174698462B4807601EB9072008B00B
:1006D000BDE8F081B08882B227483168FFF79FFFFC
:1006E000054600BF284600B1F1E700BFB08982B2DD
:1006F0002248B168FFF793FF054600BF284600B1C6
:10070000E5E700BF20221E496846FFF795FD6069B6
:100710000690207C08B1012000E000208DF8140034
:100720008DF81C80607C08B10E2000E000208DF860
:100730001500E0680290A06803902068019060684E
:100740000090104A6946104800F038FC054600BF8A
:10075000284600B1BBE700BF00200C4908702068A4
:10076000401C28B101220A49074800F06DFCAEE7A1
:100770000020ACE72800002090020020A00200200A
:100780003C1E0000E5190000140000202E0000208F
:100790002D0000202DE9F041054629461448FFF7B9
:1007A00050FF064606BB134C002720781249085C10
:1007B00020B1201D01F04CF8074608E020780E49D2
:1007C000085C20B904F10C0000F0EAFE074600BF07
:1007D00057B90A490648FFF713FF28B9012207490C
:1007E000044800F053FC06463046BDE8F0810000A6
:1007F000A002002014000020080000202C0000208F
:1008000000B5024600F006F800BD00B5024600F053
:100810000BF800BD72B603480068401C014908602F
:10082000704700003000002004480068401E034963
:1008300008600846006800B962B6704730000020C2
:1008400070B505460C462068401C28B1206800F0B1
:10085000ADFC206800F092FC6068401C18B10021DB
:10086000606800F071FC2868A169C0F8241500BF19
:10087000617D227D286841EA0203C0F86C3500BF23
:10088000D4E90012286800F0EFFC207D012814D183
:10089000A068401C18B10021A06800F055FCE06879
:1008A000401C28B1E06800F081FCE06800F066FCC4
:1008B000D4E90221286800F0C0FC70BD70B505467F
:1008C0000C462068401C28B1206800F07AFC2068A3
:1008D00000F060FC6068401C18B10021606800F006
:1008E00040FC2868A169C0F8241500BF617D227D05
:1008F000286841EA0203C0F86C3500BFD4E9001251
:10090000286800F0E9FC207D012814D1A068401C73
:1009100018B10021A06800F024FCE068401C28B158
:10092000E06800F04EFCE06800F034FCD4E90221FD
:10093000286800F0B2FC70BD7CB500240DE00848CA
:10094000055D0326002000903346024601460190D3
:10095000284600F0BDFB00BF641C042CEFD37CBD17
:10096000D81D000010B5044604F0010008B100F0E5
:1009700011F804F0020008B1FFF7DEFF10BD00001F
:1009800010B504460249085D012100F025FC10BDA8
:10099000D41D00007CB500240CE00948055D002052
:1009A00000900346012211460190284600F090FB7A
:1009B00000BF641C042CF0D300F004F87CBD0000E0
:1009C000D41D000010B5002403E02046FFF7D8FF37
:1009D000641C042CF9D310BD70B504460D462A469C
:1009E0000021204600F00EF8A068401CA06070BDF9
:1009F00001468A68C868801A704701468A68C868D4
:100A0000801A704710B583680B44848823400468BB
:100A1000E35C137010BDC26883881A400368995460
:100A2000C268521CC260704770B504460D46E0B201
:100A3000FFF7B0FE204670BD2DE9F04104460E469A
:100A40004FF48E71206800F0F1FB4FF4A271206822
:100A500000F0ECFB1A49206800F0F7FB206800F07A
:100A600042FC0546374628463946002804DB4A073B
:100A7000130E144A135408E04A074FEA126C124A44
:100A800000F00F031B1F02F803C000BF00BF206867
:100A900000F029FC0546284600280DDB00BF00BFFA
:100AA00000F01F02012191404209920002F1E02270
:100AB000C2F8001100BF00BF00BF00BFBDE8F08159
:100AC0008000020000E400E018ED00E02DE9F041B4
:100AD00004460E464FF48871206800F0D7FB4FF4AF
:100AE0009071206800F0D2FB4FF49271206800F002
:100AF000CDFB4FF4A271206800F0C8FB4FF4AC713D
:100B0000206800F0C3FB1B49206800F0CFFB206881
:100B100000F0EDFB0546374628463946002804DB41
:100B20004A07130E144A135408E04A074FEA126C9E
:100B3000124A00F00F031B1F02F803C000BF00BFE2
:100B4000206800F0D4FB0546284600280DDB00BFD6
:100B500000BF00F01F02012191404209920002F102
:100B6000E022C2F8001100BF00BF00BF00BFBDE817
:100B7000F08100001003420000E400E018ED00E006
:100B80008AB00120FFF7EEFE1822204904A8FFF7E3
:100B900053FB00BF1E4800904FF4807001901D4829
:100BA00002904FF48070039007231B4A694604A803
:100BB000FFF782FD044600BF00BF254625B100BFF8
:100BC0002846FFF70FFD00BF00BF14A0FFF7B4FCDD
:100BD0001AE000BF03A8FFF745FD0028FAD100BFC7
:100BE0009DF80C00FFF7D6FD0028F9D19DF80C0008
:100BF000712803D09DF80C00512804D10EA0FFF7F6
:100C00009BFC00BFFEE700BFE3E70000BC1D000047
:100C10004000002040010020BD1900000D0A554190
:100C20005254206578616D706C65207374617274C4
:100C300065642E0D0A000000200D0A4578697421B4
:100C40000D0A000014480068401C38B913480178A8
:100C5000124808300078C0F3031205E00E4801681E
:100C60004FF08050D0F83421062913D1D01E05282A
:100C70000ED2DFE800F0030507090B0001207047E2
:100C80000120FCE70120FAE70120F8E70120F6E760
:100C90000120F4E70020F2E730010010E00F00F03F
:100CA00014480068401C38B91348017812480830CD
:100CB0000078C0F3031205E00E4801684FF0805041
:100CC000D0F83421062913D1D01E05280ED2DFE832
:100CD00000F0030507090B00012070470120FCE725
:100CE0000120FAE70120F8E70120F6E70120F4E708
:100CF0000020F2E730010010E00F00F01448006817
:100D0000401C38B913480178124808300078C0F305
:100D1000031205E00E4801684FF08050D0F83421EE
:100D2000062913D1D01E05280ED2DFE800F00305F6
:100D300007090B00012070470120FCE70120FAE7BA
:100D40000120F8E70120F6E70120F4E70020F2E7B0
:100D500030010010E00F00F00F4801780E48083015
:100D60000078C0F30312062913D1D01E05280ED235
:100D7000DFE800F0030507090B00012070470020A1
:100D8000FCE70020FAE70020F8E70020F6E7002063
:100D9000F4E70020F2E70000E00F00F00E480168E1
:100DA0004FF08050D0F83421062913D1D01E0528E9
:100DB0000ED2DFE800F0030507090B0000207047A2
:100DC0000020FCE70020FAE70120F8E70120F6E721
:100DD0000120F4E70020F2E7300100101448006819
:100DE000401C38B913480178124808300078C0F325
:100DF000031205E00E4801684FF08050D0F834210E
:100E0000062913D1D01E05280ED2DFE800F0030515
:100E100007090B00012070470120FCE70120FAE7D9
:100E20000120F8E70120F6E70120F4E70020F2E7CF
:100E300030010010E00F00F00F4801780E48083034
:100E40000078C0F30312062913D1D01E05280ED254
:100E5000DFE800F0030507090B00012070470020C0
:100E6000FCE70020FAE70020F8E70020F6E7002082
:100E7000F4E70020F2E70000E00F00F014480068FB
:100E8000401C38B913480178124808300078C0F384
:100E9000031205E00E4801684FF08050D0F834216D
:100EA000062913D1D01E05280ED2DFE800F0030575
:100EB00007090B00012070470120FCE70120FAE739
:100EC0000120F8E70120F6E70120F4E70020F2E72F
:100ED00030010010E00F00F00F4801780E48083094
:100EE0000078C0F30312062913D1D01E05280ED2B4
:100EF000DFE800F0030507090B0001207047002020
:100F0000FCE70020FAE70020F8E70020F6E70020E1
:100F1000F4E70020F2E70000E00F00F00F4801784E
:100F20000E4808300078C0F30312062913D1D01EF2
:100F300005280ED2DFE800F0030507090B000120A9
:100F400070470020FCE70020FAE70020F8E70020C7
:100F5000F6E70020F4E70020F2E70000E00F00F0E1
:100F600014480068401C38B913480178124808300A
:100F70000078C0F3031205E00E4801684FF080507E
:100F8000D0F83421062913D1D01E05280ED2DFE86F
:100F900000F0030507090B00002070470020FCE764
:100FA0000120FAE70120F8E70120F6E70120F4E745
:100FB0000020F2E730010010E00F00F02DE9F041D1
:100FC00088B004460F46154626781A4840F8265041
:100FD0001949386941F82600787F18498855202238
:100FE00039466846FFF728F904964FF00008207844
:100FF0001249085C50B10DB1114800E000200246D2
:101000006946201D00F0E8FA80460EE020780B4982
:10101000085C50B90DB10B4800E00020024669465B
:1010200004F10C0000F0A0F98046404608B0BDE88D
:10103000F0810000000000200400002008000020D3
:10104000511C0000C91A00002DE9F04104460D466C
:101050001646002720780C49085C30B132462946F4
:10106000201D00F0F9FA07460AE020780649085CDE
:1010700030B93246294604F10C0000F0B9F90746B0
:101080003846BDE8F0810000080000202DE9F0415D
:1010900004460D461646002720780C49085C30B1FE
:1010A00032462946201D00F073FB07460AE02078EF
:1010B0000649085C30B93246294604F10C0000F0BC
:1010C00029FA07463846BDE8F081000008000020F4
:1010D000F0B5DDE9054500BF4FF0A0473E4641EAC7
:1010E000420747EA830747EA042747EA054C06F523
:1010F000E06747F820C0F0BDF0B5DDE9054500BF69
:101100004FF0A0473E4641EA420747EA830747EAD5
:10111000042747EA054C06F5E06747F820C0F0BD14
:10112000F0B5DDE9054500BF4FF0A0473E4641EA76
:10113000420747EA830747EA042747EA054C06F5D2
:10114000E06747F820C0F0BD7CB505460C4600209E
:10115000009023460246014601902846FFF7CCFF47
:101160007CBD7CB505460C46002000902346024617
:10117000014601902846FFF7D3FF7CBD1CB504460D
:101180000020009003460122114601902046FFF7FF
:10119000B3FF1CBD1CB5044600200090034601228D
:1011A000114601902046FFF7BBFF1CBD00BF4FF06A
:1011B000A0410A46012303FA00F1C2F8081500BF56
:1011C000704700BF4FF0A0410A46012303FA00F127
:1011D000C2F8081500BF704710B561B900BF00BF65
:1011E0004FF0A0421346012404FA00F2C3F80C2584
:1011F00000BF00BF0CE000BF00BF4FF0A04213468D
:10120000012404FA00F2C3F8082500BF00BF00BFA4
:1012100010BD0146D1F88004C1F880047047024631
:10122000505808B1012070470020FCE708B50022A3
:1012300042504258009200BF08BDC0F80815C0F8DF
:1012400010257047C0F808137047C0F804137047A2
:101250000246D2F80403084008B10120704700207C
:10126000FCE7012242507047C0F81425C0F80C1565
:1012700070470146D1F88004C1F8800470470246E7
:10128000505808B1012070470020FCE708B5002243
:1012900042504258009200BF08BDC0F808154FF4F4
:1012A000A2631A507047C0F808137047C0F80413BF
:1012B0007047014640F23C5040587047D0F8002239
:1012C0008A43C0F80022704701224250704701460D
:1012D00040F24C504058704740F20C53195040F2C5
:1012E00014531A5070470146080B40B2704701462C
:1012F000080B40B27047014601F06040B0F1005F5A
:1013000001D1012070470020FCE72DE9F04107469C
:101310000E46384600F0ACFA0446BCB14FF0000867
:101320000020FFF76DFA207910B14FF0010802E0BC
:101330002660012020710020FFF767FAB8F1000F46
:1013400003D011252846BDE8F08100BF00252846BE
:10135000F9E7000010B50249024800F0D1FB10BDCA
:1013600040020020002000402DE9F04105460E46D5
:101370001746287900EB400101EBC0001A4901EB48
:1013800080044FF0000894F82A0020B14FF00808BC
:101390004046BDE8F0812A79144B53F822102868A2
:1013A000FFF7B3FF18B14FF011084046F1E731469F
:1013B0002846FFF745FA676030692060606818B119
:1013C000317F2846FFF738FB28680421C0F8001554
:1013D00000BF0020A061E06184F829006061012065
:1013E00084F82A004046D4E740020020EC1D0000AB
:1013F0002DE9F84F054689469246287900EB4001D1
:1014000001EBC000424901EB8004002000906068BD
:1014100020B14FF401712868FFF714FFA06970B183
:10142000E06950B1606820B14FF401712868FFF79E
:101430000CFF11263046BDE8F88F0120009000987F
:1014400038B9C4F818A0C4F80C9000206062E061BC
:1014500003E0C4F81090C4F81CA094F8290020B947
:10146000009810B9284600F04AFA6068002846D172
:101470004FF4A2712868FFF7D9FE00BF00BF4FF4F8
:1014800092712868FFF7CBFE80464FF4847128687C
:10149000FFF7C5FE83464FF4A2712868FFF7BFFE31
:1014A0000746BBF1000F03D117B9B8F1000FE6D022
:1014B000B8F1000F00D107B107E02146286800F01D
:1014C000E3F9616AA0698842D8D800BF0020A06112
:1014D000B8F1000F02D003263046ACE717B10F2653
:1014E0003046A8E794F8290020B100212868FFF7CA
:1014F000B8FE03E004212868FFF7B3FE04E04FF4D0
:1015000001712868FFF7A1FE0026304693E700002E
:10151000400200202DE9F04104460F469046207914
:1015200000EB400101EBC0001C4901EB80052046A7
:1015300000F036F818B111263046BDE8F081C5F844
:101540001480AF600020286285F8280000264FF440
:101550008E712068FFF76AFE08212068FFF781FE80
:101560002946206800F0F7F96868A0B92946206884
:1015700000F0D6F908B90F260BE000BF4FF48E71CA
:101580002068FFF74CFE0028F8D00C212068FFF7F8
:1015900068FE002068613046CFE70000400200206E
:1015A0000146087900EB400202EBC000044A02EB5E
:1015B0008000406908B1012070470020FCE700006E
:1015C0004002002010B50249024800F05DFB10BD4A
:1015D0006C020020002000402DE9F04105460E4637
:1015E0001746287900EBC000194901EB80044FF041
:1015F000000894F8200020B14FF008084046BDE8EC
:10160000F0812A79134B53F822102868FFF77DFEEA
:1016100018B14FF011084046F1E731462846FFF770
:101620004DF9676030692060606818B1317F2846E5
:10163000FFF74CFA28680821C0F8001500BF002009
:10164000A061E0616061012084F820004046D6E797
:101650006C0200201C1E00002DE9F84F04460E46C7
:101660001746207900EBC000484901EB8005304661
:10167000FFF741FE20B94FF010084046BDE8F88F53
:101680004FF0000A686820B14FF404712068FFF73A
:101690000AFEA86970B1E86950B1686820B14FF4DA
:1016A00004712068FFF702FE4FF011084046E5E79D
:1016B0004FF0010ABAF1000F04D1AF61EE600020D3
:1016C000E86101E02E61EF614FF000084FF488718E
:1016D0002068FFF7DBFD4FF4A2712068FFF7D6FD0D
:1016E0002068C0F834654FF4A7610F5000BFBAF10D
:1016F000000F04D100212068FFF7E6FD08E020215B
:101700002068D0F800220A43C0F8002200BF00BFC2
:10171000207900EBC0001D4901EB8000406868BBE8
:1017200000BF4FF488712068FFF7A9FD00904FF4C7
:10173000A2712068FFF7A3FD83464FF492712068E1
:10174000FFF79DFD8146009828B9BBF1000F02D13B
:10175000B9F1000FE5D00020217901EBC1010B4A5E
:1017600002EB81018861B9F1000F01D04FF003084D
:10177000BBF1000F01D04FF00F0804E04FF40471EB
:101780002068FFF793FD404678E700006C020020D8
:101790002DE9F047044688469146207900EBC000C9
:1017A0002A4901EB80054046FFF7A5FD18B9102630
:1017B0003046BDE8F087204600F04AF810B1112607
:1017C0003046F6E7C5F81490C5F8088000264FF4B7
:1017D00090712068FFF75AFD4FF4AC712068FFF755
:1017E00055FD20686A69A968C0F844154FF4A963DB
:1017F0001A5000BF08212068FFF766FD686818BB13
:1018000000BF4FF490712068FFF739FD82464FF416
:10181000AC712068FFF733FD0746BAF1000F01D124
:10182000002FEED00FB10F260BE00C212068FFF740
:101830004BFD00BF4FF4AC712068FFF720FD00287E
:10184000F8D00020686100BF3046B2E76C0200208B
:101850000146087900EBC000044A02EB80004069B1
:1018600008B1012070470020FCE700006C02002056
:1018700001460348814201D1024870470020FCE73D
:10188000002000400C00002070B505460C46A06901
:1018900040B94FF484712846FFF7C8FC00BFD5F863
:1018A000180570BD4FF484712846FFF7BFFC00BFD8
:1018B000D5F81805C0B2626AE1688854606A401CB5
:1018C000606200BFEDE77FB504460D461646012075
:1018D0008DF80000029501966846D4E90012904701
:1018E0007FBD7FB504460D46164601208DF80000E9
:1018F000029501966846D4E9001290477FBD10B565
:1019000004464FF492712068FFF790FC4FF4847105
:101910002068FFF78BFC00212068FFF7A2FC10BDB8
:1019200070B505460C46666910E004E094F828009E
:1019300008B1002070BD4FF48E712846FFF76FFC90
:101940000028F3D02146284600F005F8206AB0426E
:10195000EBD30120EEE770B505460C464FF48E71CF
:101960002846FFF763FC216AA068465C206A401C99
:1019700020623046C5F81C0500BF70BD7FB5044627
:101980000D4600208DF800000295A068019000200F
:1019900060616846D4E9001290477FBD7FB5044678
:1019A0000D4600208DF800000295A06801900020EF
:1019B00060616846D4E9001290477FBD10B50446C7
:1019C0002078022804D100BF6068FEF70BFE07E014
:1019D0002078012804D100BF6068FEF703FE00BF35
:1019E00010BD00007CB504460E462078002847D084
:1019F000012802D0022856D133E0207A28B90122EA
:101A00002A492B48FFF720FB4EE0606801782948FF
:101A1000FEF717FE054645B101208DF8000001953F
:101A200068462549096888470AE02248FEF7E5FF2D
:101A300030B100208DF8000068461F4909688847CA
:101A40001C48FEF7DAFF1B498988884205D8012225
:101A500016491748FFF7F8FA02E001201749087005
:101A600022E002208DF80000E068019001220F4979
:101A70000F48FFF7E9FA68460F490968884713E0FD
:101A80000F491048FEF7BCFD28B901220C4908484F
:101A9000FFF7FCFA06E003208DF8000068460649CF
:101AA0000968884700E000BF00BF7CBD2D00002012
:101AB0001400002090020020280000202E000020AA
:101AC0002C000020A00200207FB504460D462E46C3
:101AD00020788DF8000060680190217A8DF8081058
:101AE000E1680391044850F82610044850F8262075
:101AF000684690477FBD00000400002000000020E1
:101B00002DE9FF4105460C464FF400712846FFF7CA
:101B10009FFB48B34FF492712846FFF780FB18B340
:101B20004FF492712846FFF781FB4FF4017128466C
:101B3000FFF788FB94F8290018B904212846FFF71D
:101B400090FB02208DF800002846FFF762FB03900F
:101B5000A1690291E06801900020A061E0616846FF
:101B6000D4E90012904737E004212846FFF770FBC4
:101B7000002831D04FF484712846FFF750FB58B34A
:101B800021462846FFF780FE616AA069884223D17A
:101B9000E06970B1E668676AE069A0612069E060A9
:101BA0000020E0616062324639462046FFF78BFE36
:101BB00012E094F8290018B904212846FFF751FBD8
:101BC0004FF401712846FFF73DFB0020A061E26859
:101BD000616A2046FFF777FE4FF48E712846FFF7C3
:101BE0001EFBB8B16669206AB04207D294F828009B
:101BF00020B921462846FFF7AEFE0AE04FF48E7169
:101C00002846FFF713FB606918B161692046FFF7AA
:101C1000B5FE00BF4FF4A2712846FFF700FBA0B14C
:101C20004FF4A2712846FFF701FB94F8290018B180
:101C300000212846FFF715FBA06930B10020A06104
:101C4000E268616A2046FFF73EFEBDE8FF810000C2
:101C50007FB504460D462E4620788DF8000060685A
:101C60000190217A8DF80810E1680391044850F83A
:101C70002610044850F82620684690477FBD000093
:101C800004000020000000202DE9FF4106460C461C
:101C90004FF492713046FFF7F2FAC8B14FF49271E7
:101CA0003046FFF7F3FA02208DF800003046FFF7C8
:101CB000E0FA03903046FFF7FCFA0290E0680190EA
:101CC0000020A061E0616846D4E9001290472CE052
:101CD0004FF488713046FFF7D2FA30B34FF4887171
:101CE0003046FFF7D3FA3046FFF7E3FA0546A0691E
:101CF000A84219D1E06980B1E76820213046FFF79A
:101D0000DDFAE069A0612069E0600020E0613A4608
:101D100029462046FFF7E5FD06E00020A0612946A0
:101D20002046E268FFF7DDFD00BF4FF4A2713046A8
:101D3000FFF7A5FA90B14FF4A2713046FFF7A6FA6B
:101D4000A06958B10020A061E0613046FFF7B1FA08
:101D5000054629462046E268FFF7C3FD4FF490711F
:101D60003046FFF78CFA90B14FF490713046FFF790
:101D70008DFA0C213046FFF7A7FA606938B130467A
:101D8000FFF7A5FA054629462046FFF707FE4FF460
:101D9000AC713046FFF773FA70B14FF4AC71304656
:101DA000FFF774FA606938B13046FFF790FA0546DC
:101DB00029462046FFF7F2FDBDE8FF81080000003C
:101DC0000600000005000000070000000000000001
:101DD00000E0D701111213140D0E0F106E72667809
:101DE0005F756172745F696E69740000551300005D
:101DF0006E7266785F756172745F7478006E726679
:101E0000785F756172745F72780000006E72667838
:101E10005F75617274655F696E697400C515000055
:101E20006E7266785F75617274655F7478006E7249
:101E300066785F75617274655F727800FFFFFFFFFF
:101E4000FFFFFFFFFFFFFFFFFFFFFFFF000000009E
:101E5000000000000000D601060100007C1E00000A
:101E6000000000204000000048050000BC1E0000EB
:101E70004000002070220000580500000000000013
:101E80000000000000000000000000000000000052
:101E90000000000000200040000000000020004082
:101EA0000000000000000000000000000000000032
:0C1EB00000000000000000000090D003C3
:0400000500000201F4
:00000001FF
